{
  "contractName": "Bank",
  "abi": [
    {
      "inputs": [],
      "stateMutability": "nonpayable",
      "type": "constructor"
    },
    {
      "inputs": [],
      "name": "Balance",
      "outputs": [
        {
          "internalType": "uint256",
          "name": "",
          "type": "uint256"
        }
      ],
      "stateMutability": "view",
      "type": "function",
      "constant": true
    },
    {
      "inputs": [],
      "name": "owner",
      "outputs": [
        {
          "internalType": "address",
          "name": "",
          "type": "address"
        }
      ],
      "stateMutability": "view",
      "type": "function",
      "constant": true
    },
    {
      "stateMutability": "payable",
      "type": "receive",
      "payable": true
    },
    {
      "inputs": [
        {
          "internalType": "uint256",
          "name": "amount",
          "type": "uint256"
        }
      ],
      "name": "depositDai",
      "outputs": [],
      "stateMutability": "payable",
      "type": "function",
      "payable": true
    },
    {
      "inputs": [
        {
          "internalType": "uint256",
          "name": "amount",
          "type": "uint256"
        }
      ],
      "name": "depositUsdc",
      "outputs": [],
      "stateMutability": "payable",
      "type": "function",
      "payable": true
    },
    {
      "inputs": [
        {
          "internalType": "address",
          "name": "_erc20Address",
          "type": "address"
        },
        {
          "internalType": "uint256",
          "name": "amount",
          "type": "uint256"
        }
      ],
      "name": "depositErc20",
      "outputs": [],
      "stateMutability": "payable",
      "type": "function",
      "payable": true
    },
    {
      "inputs": [
        {
          "internalType": "uint256",
          "name": "amount",
          "type": "uint256"
        }
      ],
      "name": "withdrawDai",
      "outputs": [],
      "stateMutability": "nonpayable",
      "type": "function"
    },
    {
      "inputs": [
        {
          "internalType": "uint256",
          "name": "amount",
          "type": "uint256"
        }
      ],
      "name": "withdrawUsdc",
      "outputs": [],
      "stateMutability": "nonpayable",
      "type": "function"
    },
    {
      "inputs": [
        {
          "internalType": "address",
          "name": "_erc20Address",
          "type": "address"
        },
        {
          "internalType": "uint256",
          "name": "amount",
          "type": "uint256"
        }
      ],
      "name": "withDrawErc20",
      "outputs": [],
      "stateMutability": "nonpayable",
      "type": "function"
    },
    {
      "inputs": [
        {
          "internalType": "uint256",
          "name": "amount",
          "type": "uint256"
        }
      ],
      "name": "calculateBankFee",
      "outputs": [
        {
          "internalType": "uint256",
          "name": "",
          "type": "uint256"
        },
        {
          "internalType": "uint256",
          "name": "",
          "type": "uint256"
        }
      ],
      "stateMutability": "view",
      "type": "function",
      "constant": true
    },
    {
      "inputs": [
        {
          "internalType": "uint256",
          "name": "fee",
          "type": "uint256"
        }
      ],
      "name": "setBankFee",
      "outputs": [
        {
          "internalType": "uint256",
          "name": "",
          "type": "uint256"
        }
      ],
      "stateMutability": "nonpayable",
      "type": "function"
    },
    {
      "inputs": [],
      "name": "getDaiBalance",
      "outputs": [
        {
          "internalType": "uint256",
          "name": "",
          "type": "uint256"
        }
      ],
      "stateMutability": "view",
      "type": "function",
      "constant": true
    },
    {
      "inputs": [],
      "name": "UsdcBalance",
      "outputs": [
        {
          "internalType": "uint256",
          "name": "",
          "type": "uint256"
        }
      ],
      "stateMutability": "view",
      "type": "function",
      "constant": true
    },
    {
      "inputs": [
        {
          "internalType": "address",
          "name": "_erc20Address",
          "type": "address"
        }
      ],
      "name": "getERC20Balance",
      "outputs": [
        {
          "internalType": "uint256",
          "name": "",
          "type": "uint256"
        }
      ],
      "stateMutability": "view",
      "type": "function",
      "constant": true
    },
    {
      "inputs": [],
      "name": "addMoneyToContract",
      "outputs": [],
      "stateMutability": "payable",
      "type": "function",
      "payable": true
    }
  ],
  "bytecode": "0x6080604052736b175474e89094c44da98b954eedeac495271d0f600160006101000a81548173ffffffffffffffffffffffffffffffffffffffff021916908373ffffffffffffffffffffffffffffffffffffffff16021790555073a0b86991c6218b36c1d19d4a2e9eb0ce3606eb48600260006101000a81548173ffffffffffffffffffffffffffffffffffffffff021916908373ffffffffffffffffffffffffffffffffffffffff160217905550600160009054906101000a900473ffffffffffffffffffffffffffffffffffffffff16600360006101000a81548173ffffffffffffffffffffffffffffffffffffffff021916908373ffffffffffffffffffffffffffffffffffffffff160217905550600260009054906101000a900473ffffffffffffffffffffffffffffffffffffffff16600460006101000a81548173ffffffffffffffffffffffffffffffffffffffff021916908373ffffffffffffffffffffffffffffffffffffffff16021790555073cd0bf0039d0f09cf93f9a05fb57c2328f6d525a3600560006101000a81548173ffffffffffffffffffffffffffffffffffffffff021916908373ffffffffffffffffffffffffffffffffffffffff160217905550600060065560006007553480156101df57600080fd5b50336000806101000a81548173ffffffffffffffffffffffffffffffffffffffff021916908373ffffffffffffffffffffffffffffffffffffffff1602179055506118098061022f6000396000f3fe6080604052600436106100e15760003560e01c80635ddc916a1161007f5780637a3e57b3116100595780637a3e57b3146102705780638da5cb5b1461029957806393a991af146102c4578063b588d225146102ed576100e8565b80635ddc916a146101eb57806363299737146102165780636548b40d14610254576100e8565b80631834ef4e116100bb5780631834ef4e146101805780632357928e1461018a57806335842f74146101a65780635b06dece146101c2576100e8565b806301ee79ab146100ed5780630b5b7c181461012a5780630ef6788714610155576100e8565b366100e857005b600080fd5b3480156100f957600080fd5b50610114600480360381019061010f9190611504565b61032a565b60405161012191906115ef565b60405180910390f35b34801561013657600080fd5b5061013f61033d565b60405161014c91906115ef565b60405180910390f35b34801561016157600080fd5b5061016a6103ef565b60405161017791906115ef565b60405180910390f35b6101886103f5565b005b6101a4600480360381019061019f9190611504565b610410565b005b6101c060048036038101906101bb9190611504565b61067a565b005b3480156101ce57600080fd5b506101e960048036038101906101e49190611504565b6108e4565b005b3480156101f757600080fd5b50610200610b7f565b60405161020d91906115ef565b60405180910390f35b34801561022257600080fd5b5061023d60048036038101906102389190611504565b610c31565b60405161024b92919061160a565b60405180910390f35b61026e6004803603810190610269919061149f565b610c63565b005b34801561027c57600080fd5b506102976004803603810190610292919061149f565b610e6e565b005b3480156102a557600080fd5b506102ae6110cc565b6040516102bb9190611574565b60405180910390f35b3480156102d057600080fd5b506102eb60048036038101906102e69190611504565b6110f0565b005b3480156102f957600080fd5b50610314600480360381019061030f9190611476565b61138b565b60405161032191906115ef565b60405180910390f35b6000816007819055506007549050919050565b6000600460009054906101000a900473ffffffffffffffffffffffffffffffffffffffff1673ffffffffffffffffffffffffffffffffffffffff166370a08231306040518263ffffffff1660e01b815260040161039a9190611574565b60206040518083038186803b1580156103b257600080fd5b505afa1580156103c6573d6000803e3d6000fd5b505050506040513d601f19601f820116820180604052508101906103ea919061152d565b905090565b60065481565b34600660008282546104079190611633565b92505081905550565b6000600460009054906101000a900473ffffffffffffffffffffffffffffffffffffffff1673ffffffffffffffffffffffffffffffffffffffff166370a08231306040518263ffffffff1660e01b815260040161046d9190611574565b60206040518083038186803b15801561048557600080fd5b505afa158015610499573d6000803e3d6000fd5b505050506040513d601f19601f820116820180604052508101906104bd919061152d565b9050600460009054906101000a900473ffffffffffffffffffffffffffffffffffffffff1673ffffffffffffffffffffffffffffffffffffffff166323b872dd3330856040518463ffffffff1660e01b815260040161051e9392919061158f565b602060405180830381600087803b15801561053857600080fd5b505af115801561054c573d6000803e3d6000fd5b505050506040513d601f19601f8201168201806040525081019061057091906114db565b506000600460009054906101000a900473ffffffffffffffffffffffffffffffffffffffff1673ffffffffffffffffffffffffffffffffffffffff166370a08231306040518263ffffffff1660e01b81526004016105ce9190611574565b60206040518083038186803b1580156105e657600080fd5b505afa1580156105fa573d6000803e3d6000fd5b505050506040513d601f19601f8201168201806040525081019061061e919061152d565b90506000828261062e91906116e3565b905080600860003373ffffffffffffffffffffffffffffffffffffffff1673ffffffffffffffffffffffffffffffffffffffff1681526020019081526020016000208190555050505050565b6000600360009054906101000a900473ffffffffffffffffffffffffffffffffffffffff1673ffffffffffffffffffffffffffffffffffffffff166370a08231306040518263ffffffff1660e01b81526004016106d79190611574565b60206040518083038186803b1580156106ef57600080fd5b505afa158015610703573d6000803e3d6000fd5b505050506040513d601f19601f82011682018060405250810190610727919061152d565b9050600360009054906101000a900473ffffffffffffffffffffffffffffffffffffffff1673ffffffffffffffffffffffffffffffffffffffff166323b872dd3330856040518463ffffffff1660e01b81526004016107889392919061158f565b602060405180830381600087803b1580156107a257600080fd5b505af11580156107b6573d6000803e3d6000fd5b505050506040513d601f19601f820116820180604052508101906107da91906114db565b506000600360009054906101000a900473ffffffffffffffffffffffffffffffffffffffff1673ffffffffffffffffffffffffffffffffffffffff166370a08231306040518263ffffffff1660e01b81526004016108389190611574565b60206040518083038186803b15801561085057600080fd5b505afa158015610864573d6000803e3d6000fd5b505050506040513d601f19601f82011682018060405250810190610888919061152d565b90506000828261089891906116e3565b905080600860003373ffffffffffffffffffffffffffffffffffffffff1673ffffffffffffffffffffffffffffffffffffffff1681526020019081526020016000208190555050505050565b60008054906101000a900473ffffffffffffffffffffffffffffffffffffffff1673ffffffffffffffffffffffffffffffffffffffff163373ffffffffffffffffffffffffffffffffffffffff161461093c57600080fd5b60008061094883610c31565b91509150600460009054906101000a900473ffffffffffffffffffffffffffffffffffffffff1673ffffffffffffffffffffffffffffffffffffffff1663a9059cbb33846040518363ffffffff1660e01b81526004016109a99291906115c6565b602060405180830381600087803b1580156109c357600080fd5b505af11580156109d7573d6000803e3d6000fd5b505050506040513d601f19601f820116820180604052508101906109fb91906114db565b5081600860003373ffffffffffffffffffffffffffffffffffffffff1673ffffffffffffffffffffffffffffffffffffffff1681526020019081526020016000206000828254610a4b91906116e3565b92505081905550600460009054906101000a900473ffffffffffffffffffffffffffffffffffffffff1673ffffffffffffffffffffffffffffffffffffffff1663a9059cbb600560009054906101000a900473ffffffffffffffffffffffffffffffffffffffff16836040518363ffffffff1660e01b8152600401610ad19291906115c6565b602060405180830381600087803b158015610aeb57600080fd5b505af1158015610aff573d6000803e3d6000fd5b505050506040513d601f19601f82011682018060405250810190610b2391906114db565b5080600860003373ffffffffffffffffffffffffffffffffffffffff1673ffffffffffffffffffffffffffffffffffffffff1681526020019081526020016000206000828254610b7391906116e3565b92505081905550505050565b6000600360009054906101000a900473ffffffffffffffffffffffffffffffffffffffff1673ffffffffffffffffffffffffffffffffffffffff166370a08231306040518263ffffffff1660e01b8152600401610bdc9190611574565b60206040518083038186803b158015610bf457600080fd5b505afa158015610c08573d6000803e3d6000fd5b505050506040513d601f19601f82011682018060405250810190610c2c919061152d565b905090565b600080600060075484610c449190611689565b905060008185610c5491906116e3565b90508082935093505050915091565b600082905060008173ffffffffffffffffffffffffffffffffffffffff166370a08231306040518263ffffffff1660e01b8152600401610ca39190611574565b60206040518083038186803b158015610cbb57600080fd5b505afa158015610ccf573d6000803e3d6000fd5b505050506040513d601f19601f82011682018060405250810190610cf3919061152d565b90508173ffffffffffffffffffffffffffffffffffffffff166323b872dd3330866040518463ffffffff1660e01b8152600401610d329392919061158f565b602060405180830381600087803b158015610d4c57600080fd5b505af1158015610d60573d6000803e3d6000fd5b505050506040513d601f19601f82011682018060405250810190610d8491906114db565b5060008273ffffffffffffffffffffffffffffffffffffffff166370a08231306040518263ffffffff1660e01b8152600401610dc09190611574565b60206040518083038186803b158015610dd857600080fd5b505afa158015610dec573d6000803e3d6000fd5b505050506040513d601f19601f82011682018060405250810190610e10919061152d565b905060008282610e2091906116e3565b905080600860003373ffffffffffffffffffffffffffffffffffffffff1673ffffffffffffffffffffffffffffffffffffffff16815260200190815260200160002081905550505050505050565b60008054906101000a900473ffffffffffffffffffffffffffffffffffffffff1673ffffffffffffffffffffffffffffffffffffffff163373ffffffffffffffffffffffffffffffffffffffff1614610ec657600080fd5b6000829050600080610ed784610c31565b915091508273ffffffffffffffffffffffffffffffffffffffff1663a9059cbb33846040518363ffffffff1660e01b8152600401610f169291906115c6565b602060405180830381600087803b158015610f3057600080fd5b505af1158015610f44573d6000803e3d6000fd5b505050506040513d601f19601f82011682018060405250810190610f6891906114db565b5081600860003373ffffffffffffffffffffffffffffffffffffffff1673ffffffffffffffffffffffffffffffffffffffff1681526020019081526020016000206000828254610fb891906116e3565b925050819055508273ffffffffffffffffffffffffffffffffffffffff1663a9059cbb600560009054906101000a900473ffffffffffffffffffffffffffffffffffffffff16836040518363ffffffff1660e01b815260040161101c9291906115c6565b602060405180830381600087803b15801561103657600080fd5b505af115801561104a573d6000803e3d6000fd5b505050506040513d601f19601f8201168201806040525081019061106e91906114db565b5080600860003373ffffffffffffffffffffffffffffffffffffffff1673ffffffffffffffffffffffffffffffffffffffff16815260200190815260200160002060008282546110be91906116e3565b925050819055505050505050565b60008054906101000a900473ffffffffffffffffffffffffffffffffffffffff1681565b60008054906101000a900473ffffffffffffffffffffffffffffffffffffffff1673ffffffffffffffffffffffffffffffffffffffff163373ffffffffffffffffffffffffffffffffffffffff161461114857600080fd5b60008061115483610c31565b91509150600360009054906101000a900473ffffffffffffffffffffffffffffffffffffffff1673ffffffffffffffffffffffffffffffffffffffff1663a9059cbb33846040518363ffffffff1660e01b81526004016111b59291906115c6565b602060405180830381600087803b1580156111cf57600080fd5b505af11580156111e3573d6000803e3d6000fd5b505050506040513d601f19601f8201168201806040525081019061120791906114db565b5081600860003373ffffffffffffffffffffffffffffffffffffffff1673ffffffffffffffffffffffffffffffffffffffff168152602001908152602001600020600082825461125791906116e3565b92505081905550600360009054906101000a900473ffffffffffffffffffffffffffffffffffffffff1673ffffffffffffffffffffffffffffffffffffffff1663a9059cbb600560009054906101000a900473ffffffffffffffffffffffffffffffffffffffff16836040518363ffffffff1660e01b81526004016112dd9291906115c6565b602060405180830381600087803b1580156112f757600080fd5b505af115801561130b573d6000803e3d6000fd5b505050506040513d601f19601f8201168201806040525081019061132f91906114db565b5080600860003373ffffffffffffffffffffffffffffffffffffffff1673ffffffffffffffffffffffffffffffffffffffff168152602001908152602001600020600082825461137f91906116e3565b92505081905550505050565b6000808290508073ffffffffffffffffffffffffffffffffffffffff166370a08231306040518263ffffffff1660e01b81526004016113ca9190611574565b60206040518083038186803b1580156113e257600080fd5b505afa1580156113f6573d6000803e3d6000fd5b505050506040513d601f19601f8201168201806040525081019061141a919061152d565b915050919050565b6000813590506114318161178e565b92915050565b600081519050611446816117a5565b92915050565b60008135905061145b816117bc565b92915050565b600081519050611470816117bc565b92915050565b60006020828403121561148857600080fd5b600061149684828501611422565b91505092915050565b600080604083850312156114b257600080fd5b60006114c085828601611422565b92505060206114d18582860161144c565b9150509250929050565b6000602082840312156114ed57600080fd5b60006114fb84828501611437565b91505092915050565b60006020828403121561151657600080fd5b60006115248482850161144c565b91505092915050565b60006020828403121561153f57600080fd5b600061154d84828501611461565b91505092915050565b61155f81611717565b82525050565b61156e81611755565b82525050565b60006020820190506115896000830184611556565b92915050565b60006060820190506115a46000830186611556565b6115b16020830185611556565b6115be6040830184611565565b949350505050565b60006040820190506115db6000830185611556565b6115e86020830184611565565b9392505050565b60006020820190506116046000830184611565565b92915050565b600060408201905061161f6000830185611565565b61162c6020830184611565565b9392505050565b600061163e82611755565b915061164983611755565b9250827fffffffffffffffffffffffffffffffffffffffffffffffffffffffffffffffff0382111561167e5761167d61175f565b5b828201905092915050565b600061169482611755565b915061169f83611755565b9250817fffffffffffffffffffffffffffffffffffffffffffffffffffffffffffffffff04831182151516156116d8576116d761175f565b5b828202905092915050565b60006116ee82611755565b91506116f983611755565b92508282101561170c5761170b61175f565b5b828203905092915050565b600061172282611735565b9050919050565b60008115159050919050565b600073ffffffffffffffffffffffffffffffffffffffff82169050919050565b6000819050919050565b7f4e487b7100000000000000000000000000000000000000000000000000000000600052601160045260246000fd5b61179781611717565b81146117a257600080fd5b50565b6117ae81611729565b81146117b957600080fd5b50565b6117c581611755565b81146117d057600080fd5b5056fea26469706673582212201d390264dd7d1e7035f57d83a91d01ea34671639cb76de7e601f7feab2e9134364736f6c63430008000033",
  "immutableReferences": {},
  "source": "// SPDX-License-Identifier: MIT\npragma solidity >=0.8.0;\nimport \"@openzeppelin/contracts/token/ERC20/IERC20.sol\";\nimport \"@openzeppelin/contracts/token/ERC20/utils/SafeERC20.sol\";\n\n\ninterface DepositableERC20 is IERC20 {\n    function deposit() external payable;\n}\n/// @title A sample bank contract\n/// @author Will Papper and Syndicate Inc.\n/// @notice The Bank contract keeps track of the deposits and withdrawals for a\n/// single user. The bank takes a 0.3% fee on every withdrawal. The bank contract\n/// supports deposits and withdrawals for any ERC-20, but only one ERC-20 token\n/// can be used per bank contract.\n/// @dev Security for the Bank contract is paramount :) You can assume that the\n/// owner of the Bank contract is the first account in Ganache (accounts[0]\n/// within Bank.js), and that the user of the bank is not the owner of the Bank\n/// contract (e.g. the user of the bank is accounts[1] within Bank.js, not\n/// accounts[0]).\ncontract Bank {\n    using SafeERC20 for IERC20;\n    using SafeERC20 for DepositableERC20;\n    \n    address public owner;\n    // The contract address for DAI\n    address private  DAI_ADDRESS = 0x6B175474E89094C44Da98b954EedeAC495271d0F;\n       \n    // The contract address for USDC\n    address private  USDC_ADDRESS =  0xA0b86991c6218b36c1d19D4a2e9Eb0cE3606eB48;\n    \n    IERC20 daiToken = IERC20(DAI_ADDRESS);\n    IERC20 usdcToken = IERC20(USDC_ADDRESS);\n    \n    \n    \n       \n    // The address where bank fees should be sent\n    address private BANK_FEE_ADDRESS = 0xcD0Bf0039d0F09CF93f9a05fB57C2328F6D525A3;\n    \n    uint256 public Balance = 0;\n    \n   \n    \n    \n        \n\n    \n\n    // The bank should take a fee of 0.3% on every withdrawal. For example, if a\n    // user is withdrawing 1000 DAI, the bank should receive 3 DAI. If a user is\n    // withdrawing 100 DAI, the bank should receive .3 DAI. The same should hold\n    // true for USDC as well.\n    // The bankFee is set using setBankFee();\n    uint256 private bankFee = 0;\n    \n    mapping(address => uint) balances;\n    \n    constructor()  {\n        owner = msg.sender;\n    }\n    \n    modifier onlyOwner() {\n        require(msg.sender == owner);\n        _;\n    }\n\n    // You should change this value to USDC_ADDRESS if you want to set the bank\n    // to use USDC.\n    \n\n   \n    function depositDai(uint256 amount) public payable {\n        uint256 DaiOfContractBeforeTransfer = daiToken.balanceOf(address(this));\n         \n        // Initialize the ERC20 for USDC or DAI\n       \n        // Transfer funds from the user to the bank\n        daiToken.transferFrom(msg.sender, address(this), amount);\n        uint256 DaiOfContractAfterTransfer = daiToken.balanceOf(address(this));\n        uint256 daiOfUser = DaiOfContractAfterTransfer - DaiOfContractBeforeTransfer; \n        balances[msg.sender] = daiOfUser;\n\n        // Increase the balance by the deposit amount and return the balance\n        \n        \n    }\n    \n    function depositUsdc(uint256 amount) public payable {\n        uint256 UsdcContractBeforeTransfer = usdcToken.balanceOf(address(this));\n        usdcToken.transferFrom(msg.sender, address(this), amount);\n        uint256 UsdcContractAfterTransfer = usdcToken.balanceOf(address(this));\n        uint256 usdcOFUser = UsdcContractAfterTransfer - UsdcContractBeforeTransfer;\n        balances[msg.sender] = usdcOFUser;\n        \n        \n    }\n    \n    function depositErc20(address _erc20Address, uint256 amount) public payable{\n        DepositableERC20 erc20 = DepositableERC20(_erc20Address);\n        uint256 Erc20ContractBeforeTransfer = erc20.balanceOf(address(this));\n        erc20.transferFrom(msg.sender, address(this), amount);\n        uint256 Erc20ContractAfterTransfer = erc20.balanceOf(address(this));\n        uint256 erc20OfUser = Erc20ContractAfterTransfer - Erc20ContractBeforeTransfer;\n        balances[msg.sender] = erc20OfUser;\n     \n        \n    }\n    \n    \n\n    \n    function withdrawDai(uint256 amount) public onlyOwner()  {\n        // Initialize the ERC20 for USDC or DAI\n        \n\n        // Calculate the fee that is owed to the bank\n        (uint256 amountToUser, uint256 amountToBank) = calculateBankFee(amount);\n\n        daiToken.transfer(msg.sender, amountToUser);\n        // Decrease the balance by the amount sent to the user\n        balances[msg.sender] -= amountToUser;\n\n        daiToken.transfer(BANK_FEE_ADDRESS, amountToBank);\n        // Decrease the balance by the amount sent to the bank\n        balances[msg.sender] -= amountToBank;\n\n        \n    }\n    \n    function withdrawUsdc(uint256 amount) public onlyOwner() {\n        (uint256 amountToUser, uint256 amountToBank) = calculateBankFee(amount);\n        usdcToken.transfer(msg.sender, amountToUser);\n        balances[msg.sender] -= amountToUser;\n        usdcToken.transfer(BANK_FEE_ADDRESS, amountToBank);\n        balances[msg.sender] -= amountToBank;\n        \n        \n    }\n    \n     function withDrawErc20(address _erc20Address, uint256 amount) public onlyOwner() {\n         DepositableERC20 erc20 = DepositableERC20(_erc20Address);\n         (uint256 amountToUser, uint256 amountToBank) = calculateBankFee(amount);\n         erc20.transfer(msg.sender, amountToUser);\n         balances[msg.sender] -= amountToUser;\n         erc20.transfer(BANK_FEE_ADDRESS, amountToBank);\n         balances[msg.sender] -= amountToBank;\n         \n     }\n\n  \n    function calculateBankFee(uint256 amount)\n        public\n        view\n        returns (uint256, uint256)\n    {\n        // TODO: Implement the 0.3% fee to the bank here\n        uint256 amountToBank = amount * bankFee;\n        uint256 amountToUser = amount - amountToBank;\n        return (amountToUser, amountToBank);\n    }\n\n    /// @notice Set the fee that the bank takes\n    /// @param fee The fee that bankFee should be set to\n    /// @return bankFee The new value of the bank fee\n    function setBankFee(uint256 fee) public returns (uint256) {\n        bankFee = fee;\n        return bankFee;\n    }\n    \n    function getDaiBalance() public view returns(uint) {\n        return daiToken.balanceOf(address(this));\n    }\n    \n    function UsdcBalance() public view returns(uint) {\n        return usdcToken.balanceOf(address(this));\n    }\n    \n    function getERC20Balance(address _erc20Address) public view returns(uint) {\n        DepositableERC20 erc20 = DepositableERC20(_erc20Address);\n        return erc20.balanceOf(address(this));\n    }\n    \n    function addMoneyToContract() public payable {\n        Balance += msg.value;\n    }\n    \n    receive() external payable {\n        \n    }\n\n    /// @notice Get the user's bank balance\n    /// @return balance The balance of the user\n    \n}\n",
  "sourcePath": "/Users/angelicacolon/Desktop/Syndicate/contracts/Bank.sol",
  "compiler": {
    "name": "solc",
    "version": "0.8.0+commit.c7dfd78e.Emscripten.clang"
  },
  "schemaVersion": "3.4.1",
  "updatedAt": "2021-11-18T19:32:32.322Z",
  "networkType": "ethereum",
  "devdoc": {
    "author": "Will Papper and Syndicate Inc.",
    "details": "Security for the Bank contract is paramount :) You can assume that the owner of the Bank contract is the first account in Ganache (accounts[0] within Bank.js), and that the user of the bank is not the owner of the Bank contract (e.g. the user of the bank is accounts[1] within Bank.js, not accounts[0]).",
    "kind": "dev",
    "methods": {
      "setBankFee(uint256)": {
        "params": {
          "fee": "The fee that bankFee should be set to"
        },
        "returns": {
          "_0": "bankFee The new value of the bank fee"
        }
      }
    },
    "title": "A sample bank contract",
    "version": 1
  },
  "userdoc": {
    "kind": "user",
    "methods": {
      "setBankFee(uint256)": {
        "notice": "Set the fee that the bank takes"
      }
    },
    "notice": "The Bank contract keeps track of the deposits and withdrawals for a single user. The bank takes a 0.3% fee on every withdrawal. The bank contract supports deposits and withdrawals for any ERC-20, but only one ERC-20 token can be used per bank contract.",
    "version": 1
  }
}